{
  "contractName": "Election",
  "abi": [
    {
      "constant": true,
      "inputs": [
        {
          "name": "",
          "type": "address"
        }
      ],
      "name": "voterDetails",
      "outputs": [
        {
          "name": "voterAddress",
          "type": "address"
        },
        {
          "name": "name",
          "type": "string"
        },
        {
          "name": "phone",
          "type": "string"
        },
        {
          "name": "isVerified",
          "type": "bool"
        },
        {
          "name": "hasVoted",
          "type": "bool"
        },
        {
          "name": "isRegistered",
          "type": "bool"
        }
      ],
      "payable": false,
      "stateMutability": "view",
      "type": "function",
      "signature": "0x5938750d"
    },
    {
      "constant": true,
      "inputs": [
        {
          "name": "",
          "type": "uint256"
        }
      ],
      "name": "candidateDetails",
      "outputs": [
        {
          "name": "candidateId",
          "type": "uint256"
        },
        {
          "name": "header",
          "type": "string"
        },
        {
          "name": "slogan",
          "type": "string"
        },
        {
          "name": "voteCount",
          "type": "uint256"
        }
      ],
      "payable": false,
      "stateMutability": "view",
      "type": "function",
      "signature": "0x6247e532"
    },
    {
      "constant": true,
      "inputs": [
        {
          "name": "",
          "type": "uint256"
        }
      ],
      "name": "voters",
      "outputs": [
        {
          "name": "",
          "type": "address"
        }
      ],
      "payable": false,
      "stateMutability": "view",
      "type": "function",
      "signature": "0xda58c7d9"
    },
    {
      "constant": true,
      "inputs": [],
      "name": "admin",
      "outputs": [
        {
          "name": "",
          "type": "address"
        }
      ],
      "payable": false,
      "stateMutability": "view",
      "type": "function",
      "signature": "0xf851a440"
    },
    {
      "inputs": [],
      "payable": false,
      "stateMutability": "nonpayable",
      "type": "constructor",
      "signature": "constructor"
    },
    {
      "constant": true,
      "inputs": [],
      "name": "getAdmin",
      "outputs": [
        {
          "name": "",
          "type": "address"
        }
      ],
      "payable": false,
      "stateMutability": "view",
      "type": "function",
      "signature": "0x6e9960c3"
    },
    {
      "constant": false,
      "inputs": [
        {
          "name": "_header",
          "type": "string"
        },
        {
          "name": "_slogan",
          "type": "string"
        }
      ],
      "name": "addCandidate",
      "outputs": [],
      "payable": false,
      "stateMutability": "nonpayable",
      "type": "function",
      "signature": "0x26541b56"
    },
    {
      "constant": false,
      "inputs": [
        {
          "name": "_adminName",
          "type": "string"
        },
        {
          "name": "_adminEmail",
          "type": "string"
        },
        {
          "name": "_adminTitle",
          "type": "string"
        },
        {
          "name": "_electionTitle",
          "type": "string"
        },
        {
          "name": "_organizationTitle",
          "type": "string"
        }
      ],
      "name": "setElectionDetails",
      "outputs": [],
      "payable": false,
      "stateMutability": "nonpayable",
      "type": "function",
      "signature": "0x253e74e2"
    },
    {
      "constant": true,
      "inputs": [],
      "name": "getElectionDetails",
      "outputs": [
        {
          "name": "adminName",
          "type": "string"
        },
        {
          "name": "adminEmail",
          "type": "string"
        },
        {
          "name": "adminTitle",
          "type": "string"
        },
        {
          "name": "electionTitle",
          "type": "string"
        },
        {
          "name": "organizationTitle",
          "type": "string"
        }
      ],
      "payable": false,
      "stateMutability": "view",
      "type": "function",
      "signature": "0xed836bc3"
    },
    {
      "constant": true,
      "inputs": [],
      "name": "getTotalCandidate",
      "outputs": [
        {
          "name": "",
          "type": "uint256"
        }
      ],
      "payable": false,
      "stateMutability": "view",
      "type": "function",
      "signature": "0x64d198a1"
    },
    {
      "constant": true,
      "inputs": [],
      "name": "getTotalVoter",
      "outputs": [
        {
          "name": "",
          "type": "uint256"
        }
      ],
      "payable": false,
      "stateMutability": "view",
      "type": "function",
      "signature": "0x0b93400e"
    },
    {
      "constant": false,
      "inputs": [
        {
          "name": "_name",
          "type": "string"
        },
        {
          "name": "_phone",
          "type": "string"
        }
      ],
      "name": "registerAsVoter",
      "outputs": [],
      "payable": false,
      "stateMutability": "nonpayable",
      "type": "function",
      "signature": "0xfee0d19a"
    },
    {
      "constant": false,
      "inputs": [
        {
          "name": "_verifedStatus",
          "type": "bool"
        },
        {
          "name": "voterAddress",
          "type": "address"
        }
      ],
      "name": "verifyVoter",
      "outputs": [],
      "payable": false,
      "stateMutability": "nonpayable",
      "type": "function",
      "signature": "0x506b8e0a"
    },
    {
      "constant": false,
      "inputs": [
        {
          "name": "candidateId",
          "type": "uint256"
        }
      ],
      "name": "vote",
      "outputs": [],
      "payable": false,
      "stateMutability": "nonpayable",
      "type": "function",
      "signature": "0x0121b93f"
    },
    {
      "constant": false,
      "inputs": [],
      "name": "endElection",
      "outputs": [],
      "payable": false,
      "stateMutability": "nonpayable",
      "type": "function",
      "signature": "0x59f78468"
    },
    {
      "constant": true,
      "inputs": [],
      "name": "getStart",
      "outputs": [
        {
          "name": "",
          "type": "bool"
        }
      ],
      "payable": false,
      "stateMutability": "view",
      "type": "function",
      "signature": "0xc5292c67"
    },
    {
      "constant": true,
      "inputs": [],
      "name": "getEnd",
      "outputs": [
        {
          "name": "",
          "type": "bool"
        }
      ],
      "payable": false,
      "stateMutability": "view",
      "type": "function",
      "signature": "0x9f05a36d"
    }
  ],
  "bytecode": "0x608060405234801561001057600080fd5b5060008054600160a060020a0319163317815560018190556002556003805461ffff19169055611718806100456000396000f3fe6080604052600436106100e55763ffffffff7c01000000000000000000000000000000000000000000000000000000006000350416630121b93f81146100ea5780630b93400e14610116578063253e74e21461013d57806326541b561461040c578063506b8e0a146105465780635938750d1461058157806359f78468146106c05780636247e532146106d557806364d198a1146107eb5780636e9960c3146108005780639f05a36d14610831578063c5292c671461085a578063da58c7d91461086f578063ed836bc314610899578063f851a44014610abe578063fee0d19a14610ad3575b600080fd5b3480156100f657600080fd5b506101146004803603602081101561010d57600080fd5b5035610c0d565b005b34801561012257600080fd5b5061012b610cb7565b60408051918252519081900360200190f35b34801561014957600080fd5b50610114600480360360a081101561016057600080fd5b81019060208101813564010000000081111561017b57600080fd5b82018360208201111561018d57600080fd5b803590602001918460018302840111640100000000831117156101af57600080fd5b91908080601f016020809104026020016040519081016040528093929190818152602001838380828437600092019190915250929594936020810193503591505064010000000081111561020257600080fd5b82018360208201111561021457600080fd5b8035906020019184600183028401116401000000008311171561023657600080fd5b91908080601f016020809104026020016040519081016040528093929190818152602001838380828437600092019190915250929594936020810193503591505064010000000081111561028957600080fd5b82018360208201111561029b57600080fd5b803590602001918460018302840111640100000000831117156102bd57600080fd5b91908080601f016020809104026020016040519081016040528093929190818152602001838380828437600092019190915250929594936020810193503591505064010000000081111561031057600080fd5b82018360208201111561032257600080fd5b8035906020019184600183028401116401000000008311171561034457600080fd5b91908080601f016020809104026020016040519081016040528093929190818152602001838380828437600092019190915250929594936020810193503591505064010000000081111561039757600080fd5b8201836020820111156103a957600080fd5b803590602001918460018302840111640100000000831117156103cb57600080fd5b91908080601f016020809104026020016040519081016040528093929190818152602001838380828437600092019190915250929550610cbe945050505050565b34801561041857600080fd5b506101146004803603604081101561042f57600080fd5b81019060208101813564010000000081111561044a57600080fd5b82018360208201111561045c57600080fd5b8035906020019184600183028401116401000000008311171561047e57600080fd5b91908080601f01602080910402602001604051908101604052809392919081815260200183838082843760009201919091525092959493602081019350359150506401000000008111156104d157600080fd5b8201836020820111156104e357600080fd5b8035906020019184600183028401116401000000008311171561050557600080fd5b91908080601f016020809104026020016040519081016040528093929190818152602001838380828437600092019190915250929550610d9f945050505050565b34801561055257600080fd5b506101146004803603604081101561056957600080fd5b50803515159060200135600160a060020a0316610e46565b34801561058d57600080fd5b506105b4600480360360208110156105a457600080fd5b5035600160a060020a0316610e88565b60408051600160a060020a03881681528415156060820152831515608082015282151560a082015260c060208083018281528951928401929092528851929391929184019160e08501918a019080838360005b8381101561061f578181015183820152602001610607565b50505050905090810190601f16801561064c5780820380516001836020036101000a031916815260200191505b50838103825287518152875160209182019189019080838360005b8381101561067f578181015183820152602001610667565b50505050905090810190601f1680156106ac5780820380516001836020036101000a031916815260200191505b509850505050505050505060405180910390f35b3480156106cc57600080fd5b50610114610fea565b3480156106e157600080fd5b506106ff600480360360208110156106f857600080fd5b5035611018565b604051808581526020018060200180602001848152602001838103835286818151815260200191508051906020019080838360005b8381101561074c578181015183820152602001610734565b50505050905090810190601f1680156107795780820380516001836020036101000a031916815260200191505b50838103825285518152855160209182019187019080838360005b838110156107ac578181015183820152602001610794565b50505050905090810190601f1680156107d95780820380516001836020036101000a031916815260200191505b50965050505050505060405180910390f35b3480156107f757600080fd5b5061012b611157565b34801561080c57600080fd5b5061081561115d565b60408051600160a060020a039092168252519081900360200190f35b34801561083d57600080fd5b5061084661116c565b604080519115158252519081900360200190f35b34801561086657600080fd5b5061084661117a565b34801561087b57600080fd5b506108156004803603602081101561089257600080fd5b5035611183565b3480156108a557600080fd5b506108ae6111ab565b60405180806020018060200180602001806020018060200186810386528b818151815260200191508051906020019080838360005b838110156108fb5781810151838201526020016108e3565b50505050905090810190601f1680156109285780820380516001836020036101000a031916815260200191505b5086810385528a5181528a516020918201918c019080838360005b8381101561095b578181015183820152602001610943565b50505050905090810190601f1680156109885780820380516001836020036101000a031916815260200191505b5086810384528951815289516020918201918b019080838360005b838110156109bb5781810151838201526020016109a3565b50505050905090810190601f1680156109e85780820380516001836020036101000a031916815260200191505b5086810383528851815288516020918201918a019080838360005b83811015610a1b578181015183820152602001610a03565b50505050905090810190601f168015610a485780820380516001836020036101000a031916815260200191505b50868103825287518152875160209182019189019080838360005b83811015610a7b578181015183820152602001610a63565b50505050905090810190601f168015610aa85780820380516001836020036101000a031916815260200191505b509a505050505050505050505060405180910390f35b348015610aca57600080fd5b50610815611499565b348015610adf57600080fd5b5061011460048036036040811015610af657600080fd5b810190602081018135640100000000811115610b1157600080fd5b820183602082011115610b2357600080fd5b80359060200191846001830284011164010000000083111715610b4557600080fd5b91908080601f0160208091040260200160405190810160405280939291908181526020018383808284376000920191909152509295949360208101935035915050640100000000811115610b9857600080fd5b820183602082011115610baa57600080fd5b80359060200191846001830284011164010000000083111715610bcc57600080fd5b91908080601f0160208091040260200160405190810160405280939291908181526020018383808284376000920191909152509295506114a8945050505050565b336000908152600b6020526040902060030154610100900460ff1615610c3257600080fd5b336000908152600b602052604090206003015460ff161515600114610c5657600080fd5b60035460ff161515600114610c6a57600080fd5b600354610100900460ff1615610c7f57600080fd5b6000908152600460209081526040808320600390810180546001019055338452600b90925290912001805461ff001916610100179055565b6002545b90565b600054600160a060020a03163314610cd557600080fd5b6040805160a0810182528681526020808201879052918101859052606081018490526080810183905286519091600591610d14918391908a01906115f5565b506020828101518051610d2d92600185019201906115f5565b5060408201518051610d499160028401916020909101906115f5565b5060608201518051610d659160038401916020909101906115f5565b5060808201518051610d819160048401916020909101906115f5565b50506003805461ff001960ff19909116600117169055505050505050565b600054600160a060020a03163314610db657600080fd5b610dbe611673565b506040805160808101825260018054808352602080840187815284860187905260006060860181905292835260048252949091208351815593518051939485949093610e0f939085019201906115f5565b5060408201518051610e2b9160028401916020909101906115f5565b50606091909101516003909101555050600180548101905550565b600054600160a060020a03163314610e5d57600080fd5b600160a060020a03166000908152600b60205260409020600301805460ff1916911515919091179055565b600b602090815260009182526040918290208054600180830180548651600261010094831615949094026000190190911692909204601f8101869004860283018601909652858252600160a060020a03909216949293909290830182828015610f325780601f10610f0757610100808354040283529160200191610f32565b820191906000526020600020905b815481529060010190602001808311610f1557829003601f168201915b50505060028085018054604080516020601f6000196101006001871615020190941695909504928301859004850281018501909152818152959695945090925090830182828015610fc45780601f10610f9957610100808354040283529160200191610fc4565b820191906000526020600020905b815481529060010190602001808311610fa757829003601f168201915b5050506003909301549192505060ff808216916101008104821691620100009091041686565b600054600160a060020a0316331461100157600080fd5b6003805460ff1961ff001990911661010017169055565b6004602090815260009182526040918290208054600180830180548651600293821615610100026000190190911692909204601f8101869004860283018601909652858252919492939092908301828280156110b55780601f1061108a576101008083540402835291602001916110b5565b820191906000526020600020905b81548152906001019060200180831161109857829003601f168201915b50505060028085018054604080516020601f60001961010060018716150201909416959095049283018590048502810185019091528181529596959450909250908301828280156111475780601f1061111c57610100808354040283529160200191611147565b820191906000526020600020905b81548152906001019060200180831161112a57829003601f168201915b5050505050908060030154905084565b60015490565b600054600160a060020a031690565b600354610100900460ff1690565b60035460ff1690565b600a80548290811061119157fe5b600091825260209091200154600160a060020a0316905081565b6005805460408051602060026001851615610100026000190190941693909304601f810184900484028201840190925281815260609384938493849384939260069260079260089260099287918301828280156112495780601f1061121e57610100808354040283529160200191611249565b820191906000526020600020905b81548152906001019060200180831161122c57829003601f168201915b5050875460408051602060026001851615610100026000190190941693909304601f8101849004840282018401909252818152959a50899450925084019050828280156112d75780601f106112ac576101008083540402835291602001916112d7565b820191906000526020600020905b8154815290600101906020018083116112ba57829003601f168201915b5050865460408051602060026001851615610100026000190190941693909304601f8101849004840282018401909252818152959950889450925084019050828280156113655780601f1061133a57610100808354040283529160200191611365565b820191906000526020600020905b81548152906001019060200180831161134857829003601f168201915b5050855460408051602060026001851615610100026000190190941693909304601f8101849004840282018401909252818152959850879450925084019050828280156113f35780601f106113c8576101008083540402835291602001916113f3565b820191906000526020600020905b8154815290600101906020018083116113d657829003601f168201915b5050845460408051602060026001851615610100026000190190941693909304601f8101849004840282018401909252818152959750869450925084019050828280156114815780601f1061145657610100808354040283529160200191611481565b820191906000526020600020905b81548152906001019060200180831161146457829003601f168201915b50505050509050945094509450945094509091929394565b600054600160a060020a031681565b6114b061169c565b506040805160c08101825233808252602080830186815283850186905260006060850181905260808501819052600160a08601819052938152600b8352949094208351815473ffffffffffffffffffffffffffffffffffffffff1916600160a060020a0390911617815593518051939485949093611533939085019201906115f5565b506040820151805161154f9160028401916020909101906115f5565b50606082015160039091018054608084015160a0909401511515620100000262ff0000199415156101000261ff001994151560ff19909316929092179390931617929092161790555050600a8054600181810183556000929092527fc65a7bb8d6351c1cf70c95a316cc6a92839c986682d98bc35f958f4883f9d2a801805473ffffffffffffffffffffffffffffffffffffffff19163317905560028054909101905550565b828054600181600116156101000203166002900490600052602060002090601f016020900481019282601f1061163657805160ff1916838001178555611663565b82800160010185558215611663579182015b82811115611663578251825591602001919060010190611648565b5061166f9291506116d2565b5090565b608060405190810160405280600081526020016060815260200160608152602001600081525090565b6040805160c08101825260008082526060602083018190529282018390529181018290526080810182905260a081019190915290565b610cbb91905b8082111561166f57600081556001016116d856fea165627a7a723058204832e35075f6ae3787c3976c962a093bc25532f8c7452c64f7ad50e8181e201e0029",
  "source": "// SPDX-License-Identifier: MIT\r\npragma solidity >=0.4.21 <0.9.0;\r\n\r\ncontract Election {\r\n    address public admin;\r\n    uint256 candidateCount;\r\n    uint256 voterCount;\r\n    bool start;\r\n    bool end;\r\n\r\n    constructor() public {\r\n        // Initilizing default values\r\n        admin = msg.sender;\r\n        candidateCount = 0;\r\n        voterCount = 0;\r\n        start = false;\r\n        end = false;\r\n    }\r\n\r\n    function getAdmin() public view returns (address) {\r\n        // Returns account address used to deploy contract (i.e. admin)\r\n        return admin;\r\n    }\r\n\r\n    modifier onlyAdmin() {\r\n        // Modifier for only admin access\r\n        require(msg.sender == admin);\r\n        _;\r\n    }\r\n    // Modeling a candidate\r\n    struct Candidate {\r\n        uint256 candidateId;\r\n        string header;\r\n        string slogan;\r\n        uint256 voteCount;\r\n    }\r\n    mapping(uint256 => Candidate) public candidateDetails;\r\n\r\n    // Adding new candidates\r\n    function addCandidate(string memory _header, string memory _slogan)\r\n        public\r\n        // Only admin can add\r\n        onlyAdmin\r\n    {\r\n        Candidate memory newCandidate =\r\n            Candidate({\r\n                candidateId: candidateCount,\r\n                header: _header,\r\n                slogan: _slogan,\r\n                voteCount: 0\r\n            });\r\n        candidateDetails[candidateCount] = newCandidate;\r\n        candidateCount += 1;\r\n    }\r\n\r\n    // Modeling a Election Details\r\n    struct ElectionDetails {\r\n        string adminName;\r\n        string adminEmail;\r\n        string adminTitle;\r\n        string electionTitle;\r\n        string organizationTitle;\r\n    }\r\n    ElectionDetails electionDetails;\r\n\r\n    function setElectionDetails(\r\n        string memory _adminName,\r\n        string memory _adminEmail,\r\n        string memory _adminTitle,\r\n        string memory _electionTitle,\r\n        string memory _organizationTitle\r\n    )\r\n        public\r\n        // Only admin can add\r\n        onlyAdmin\r\n    {\r\n        electionDetails = ElectionDetails(\r\n            _adminName,\r\n            _adminEmail,\r\n            _adminTitle,\r\n            _electionTitle,\r\n            _organizationTitle\r\n        );\r\n        start = true;\r\n        end = false;\r\n    }\r\n\r\n    // Get Elections details\r\n    function getElectionDetails()\r\n    public\r\n    view\r\n    returns(string memory adminName, \r\n    string memory adminEmail, \r\n    string memory adminTitle, \r\n    string memory electionTitle, \r\n    string memory organizationTitle){\r\n        return(electionDetails.adminName, \r\n        electionDetails.adminEmail, \r\n        electionDetails.adminTitle, \r\n        electionDetails.electionTitle, \r\n        electionDetails.organizationTitle);\r\n    }\r\n\r\n    // Get candidates count\r\n    function getTotalCandidate() public view returns (uint256) {\r\n        // Returns total number of candidates\r\n        return candidateCount;\r\n    }\r\n\r\n    // Get voters count\r\n    function getTotalVoter() public view returns (uint256) {\r\n        // Returns total number of voters\r\n        return voterCount;\r\n    }\r\n\r\n    // Modeling a voter\r\n    struct Voter {\r\n        address voterAddress;\r\n        string name;\r\n        string phone;\r\n        bool isVerified;\r\n        bool hasVoted;\r\n        bool isRegistered;\r\n    }\r\n    address[] public voters; // Array of address to store address of voters\r\n    mapping(address => Voter) public voterDetails;\r\n\r\n    // Request to be added as voter\r\n    function registerAsVoter(string memory _name, string memory _phone) public {\r\n        Voter memory newVoter =\r\n            Voter({\r\n                voterAddress: msg.sender,\r\n                name: _name,\r\n                phone: _phone,\r\n                hasVoted: false,\r\n                isVerified: false,\r\n                isRegistered: true\r\n            });\r\n        voterDetails[msg.sender] = newVoter;\r\n        voters.push(msg.sender);\r\n        voterCount += 1;\r\n    }\r\n\r\n    // Verify voter\r\n    function verifyVoter(bool _verifedStatus, address voterAddress)\r\n        public\r\n        // Only admin can verify\r\n        onlyAdmin\r\n    {\r\n        voterDetails[voterAddress].isVerified = _verifedStatus;\r\n    }\r\n\r\n    // Vote\r\n    function vote(uint256 candidateId) public {\r\n        require(voterDetails[msg.sender].hasVoted == false);\r\n        require(voterDetails[msg.sender].isVerified == true);\r\n        require(start == true);\r\n        require(end == false);\r\n        candidateDetails[candidateId].voteCount += 1;\r\n        voterDetails[msg.sender].hasVoted = true;\r\n    }\r\n\r\n    // End election\r\n    function endElection() public onlyAdmin {\r\n        end = true;\r\n        start = false;\r\n    }\r\n\r\n    // Get election start and end values\r\n    function getStart() public view returns (bool) {\r\n        return start;\r\n    }\r\n\r\n    function getEnd() public view returns (bool) {\r\n        return end;\r\n    }\r\n}",
  "sourcePath": "C:/Users/Dell/Documents/voting-app/client/contracts/Election.sol",
  "compiler": {
    "name": "solc",
    "version": "0.5.0+commit.1d4f565a.Emscripten.clang"
  },
  "schemaVersion": "3.0.1",
  "updatedAt": "2024-09-13T12:13:34.718Z",
  "devdoc": {
    "methods": {}
  },
  "userdoc": {
    "methods": {}
  }
}